:100000000C943A020C94D2090C94F2090C942F0B24
:100010000C94CD0A0C9457020C9457020C9457027E
:100020000C9457020C9457020C94EF0C0C9457024A
:100030000C9457020C940F130C9457020C94570213
:100040000C9457020C9457020C9457020C946302C0
:100050000C9457025069426F742067657374617223
:100060007465740A00496E697469616C69736965C5
:1000700072756E67656E20626567696E6E656E0A81
:10008000000A000A0052656D6F746520436F6E743C
:10009000726F6C3A20496E76616C696420636F6D93
:1000A0006D616E643A200052656D6F746520436F18
:1000B0006E74726F6C3A2049646C650A0052656D0B
:1000C0006F746520436F6E74726F6C3A205269676B
:1000D00068740A0052656D6F746520436F6E7472A8
:1000E0006F6C3A204C6566740A0052656D6F7465DA
:1000F00020436F6E74726F6C3A204261636B77615C
:100100007264730A0052656D6F746520436F6E747C
:10011000726F6C3A20466F7277617264730A005294
:10012000656D6F746520436F6E74726F6C3A205307
:10013000746F700A004B6F6D6D616E646F20656D3A
:100140007066616E67656E0A000A005370656564CB
:100150003A20005374617274204372756973650AA2
:10016000000A54686520526F626F74206E65656482
:100170007320746F206265207265736574746564A2
:10018000206E6F772E0A0A0077697468696E207492
:10019000686520646566696E65642074696D656F65
:1001A000757421204D617962652068652773206C24
:1001B0006F636B6564207570210A00546865204D7B
:1001C000617374657220436F6E74726F6C6C6572CC
:1001D00020646964206E6F7420726573706F6E6442
:1001E00020746F2074686520696E74657272757012
:1001F000742072657175657374730A002323232359
:100200002320414C4C204F5045524154494F4E53AE
:100210002053544F5050454420544F20505245567F
:10022000454E5420414E592044414D4147452120DF
:1002300023232323230A0A000A0A23232323232018
:10024000454D455247454E43592053485554444F18
:10025000574E2023232323230A000A42657765672C
:1002600065206D6974204765736368772E20616B24
:100270007469760A000A205363686C6166650A0037
:100280000A4C4544732077657264656E2067657318
:100290006368616C7465740A000A4B6F6D6D616E02
:1002A000646F2077757264652061756667656E6F2F
:1002B0006D6D656E0A0054686520526F626F742020
:1002C0006E6565647320746F206265207265736566
:1002D00074746564206E6F772E0A0A00596F75205A
:1002E0006E65656420746F20636865636B204D6F75
:1002F000746F7220617373656D626C7920286F7200
:1003000020796F757220736F667477617265292E1C
:100310000A0A000A0A28732E207461736B5F6D6FDE
:10032000746F72436F6E74726F6C28292066756EDD
:100330006374696F6E20696E205250364C69622179
:10034000290A000A0A232323204D4F544F52204FDD
:1003500056455243555252454E54202323230A00FA
:10036000596F75206E65656420746F2063686563DE
:100370006B20456E636F6465722F4D6F746F7220D2
:10038000617373656D626C7920286F7220796F7567
:100390007220736F667477617265292E0A0A0021D4
:1003A0000A0A28732E207461736B5F6D6F746F720D
:1003B000436F6E74726F6C28292066756E63746962
:1003C0006F6E20696E205250364C696221290A00F6
:1003D0005249474854004C4546540041666665639F
:1003E000746564206368616E6E656C3A000A23234D
:1003F0002320454E434F44455220284F52204D4F15
:10040000544F5229204D414C46554E4354494F4E6E
:1004100021202323230A00232323232320414C4C80
:10042000204F5045524154494F4E532053544F5042
:1004300050454420544F2050524556454E5420417B
:100440004E592044414D4147452120232323232356
:100450000A000A0A232323232320454D45524745FA
:100460004E43592053485554444F574E202323237D
:1004700023230A0011241FBECFE5D8E0DEBFCDBF85
:1004800010E0A0E6B0E0E8E7FBE202C005900D92C4
:10049000A437B107D9F711E0A4E7B0E001C01D927D
:1004A000A738B107E1F70E94D8050C94BA150C944F
:1004B0000000F89482B98FEF83B984E086BF789406
:1004C00085EC86BF08951F920F920FB60F921124EC
:1004D0008F939F93EF93FF9381B1803909F458C0B4
:1004E000813948F4803709F44FC08038A1F1803653
:1004F00009F05BC02BC0883A61F0893A20F4803A59
:1005000009F053C04AC0883B51F0803C09F04DC00F
:1005100013C084E08093930081E080937600809103
:1005200093008430C1F580919400E82FF0E0E5530A
:10053000FF4F908193B924C01092930010929400C1
:100540001092760081E08093740025C081E0809352
:10055000770082E01AC080919300823039F483B131
:10056000809394008093750083E00FC0833099F4EA
:1005700080919400E82FF0E093B1EF54FF4F908307
:100580008F5F8093940007C081E08093930003C045
:1005900083B18093AE0085EC09C085E08093930021
:1005A00085EC86BF1092770002C084E886BFFF9179
:1005B000EF919F918F910F900FBE0F901F90189504
:1005C0008091B100882321F180917700882301F583
:1005D0008091B1008093FD001092B1008091B20033
:1005E0008093C4008091B3008093C7008091B400D1
:1005F0008093C8008091B5008093C5008091B600BB
:100600008093FB008091B7008093C30081E0089540
:1006100080E0089580917E00843009F46FC08530B9
:1006200048F4823061F1833008F050C0813009F025
:10063000B3C00AC0863009F487C0863008F467C0AA
:10064000873009F0A9C0A2C088E280937900809128
:100650007B008C7F856080937B002091920024300A
:1006600018F08CED90E002C080EA90E090937D005D
:1006700080937C0082E080937E002E5F62C0209198
:100680007B0022FD89C08EE18093790080919200E9
:10069000843060F084E690E090937D0080937C004D
:1006A000236020937B00109292000AC02C7F22606E
:1006B00020937B0086E490E090937D0080937C0003
:1006C00080917B00886080937B005CC088E280938F
:1006D000790080917B008C7F856080937B002091E6
:1006E0009200243018F08EEB90E002C086E990E092
:1006F00090937D0080937C0084E020C090917B00EB
:1007000092FD4AC08EE1809379009B6026C088E20A
:100710008093790080917B008C7F856080937B0043
:1007200020919200243018F08EEB90E002C086E910
:1007300090E090937D0080937C0086E080937E0023
:100740002F5F20939200089590917B0092FD24C02A
:100750008EE1809379009C7F9A6090937B008091DA
:100760009200843048F08EE690E090937D00809374
:100770007C001092920006C080E590E090937D008E
:1007800080937C0087E080937E00089580917B00B9
:100790008C7011F410927E0008958091FE0090916B
:1007A0005B01882351F0992311F081E00DC0809105
:1007B0007E00823059F083E007C0992339F08091A0
:1007C0007E00823019F085E080937E0080912B01BD
:1007D0008F7E80932B01089580918A00823009F4E6
:1007E0007AC0833030F4882351F0813009F0B6C0EC
:1007F0004DC08330C9F0853009F0B0C09DC09091E4
:100800004601992331F080913D01882311F083E066
:100810003AC080913D01882311F082E034C09923D1
:1008200009F49CC081E02FC090916A009370809180
:1008300087008C7F892B809387008EE180938500D1
:100840008093860080913D01882309F087C08091C4
:100850004601882309F082C080919100843038F0ED
:1008600010929100109233011092320106C080E97B
:1008700091E0909333018093320180912B01886045
:1008800080932B0185E080938A00089580918700F2
:100890008C7F809387008EE18093850088E280932F
:1008A000860080914601882331F080913D018823A4
:1008B00081F083E00CC084EF91E09093330180934A
:1008C000320180912B01886080932B0185E0809319
:1008D0008A0083E029C0809187008C7F8093870005
:1008E00088E2809385008EE18093860080914601A6
:1008F000882339F080913D01882319F083E08093AB
:100900008A0080913D01882371F484EF91E09093F7
:1009100033018093320180912B01886080932B01F9
:1009200085E080938A0082E080936A008091910044
:100930008F5F8093910008958091320190913301EF
:10094000895E934058F080912B01877F80932B0123
:10095000109233011092320110928A0008951F9371
:10096000CF93DF93EC014B815C816A814115510586
:1009700021F163FF06C06370888120E00E94CE11E0
:1009800019C062FF17C0162F1370BA0180E090E003
:100990000E9493142FE832EC45E75EE30E94FF13B8
:1009A0000E9467149B01AC018881612FA90120E09E
:1009B0000E9451121C821B8213C0862F8C7049F436
:1009C000862F83700E94270A888169810E94180AF5
:1009D00007C00E94630A882319F08A81837F8A8373
:1009E000DF91CF911F9108950E94E002882309F4BE
:1009F00060C085E391E00E94F6129091FD00909313
:100A00009000992309F455C082E380938B00809372
:100A10008C00923089F0933028F4992389F1913039
:100A200091F507C0943081F09430B8F0953059F5C5
:100A30001DC08FE191E033C085E091E00E94F61285
:100A400080918D008C7F19C08AEE90E00E94F61292
:100A500080918D008C7F816010C084ED90E00E94B9
:100A6000F61280918D008C7F826007C08DEB90E044
:100A70000E94F61280918D00836080938D0015C0D6
:100A800087EA90E00CC085E890E00E94F612809121
:100A9000FD0090E06AE00E949E1383E890E00E94CF
:100AA000F61210928B0010928C0081E890E00E9468
:100AB000F612089580916900882309F44FC080914F
:100AC0002B0184FD10C083E591E00E94F61282E3C1
:100AD00080936300109235011092340180912B01B4
:100AE000806180932B018091340190913501895E62
:100AF0009340A0F184EF91E090933501809334010D
:100B000080912B01806180932B0180916300863955
:100B100018F48F5F8093630080916300843618F42B
:100B20008F5F8093630080916300803518F48F5F3E
:100B300080936300809163008093640080936500DC
:100B40008BE491E00E94F6128091630090E06AE0ED
:100B50000E949E1389E491E00E94F61208950E947B
:100B60000A030E94EC030E94F4040E945A0580913B
:100B70007E00882319F089E790E017C080918A00F1
:100B8000882319F085E890E010C0809190008823B8
:100B900019F08BE890E009C080916900882319F072
:100BA00084E690E002C08FE790E00E94AF040895D1
:100BB0000E94D70E8FE30E941F0984EC99E00E94E7
:100BC000BD0E84E20E941F0985E690E00E94F612A5
:100BD000F8948CE082B98FEF83B984E086BF789473
:100BE00085EC86BF8DEC93E00E943F0987E096E09C
:100BF0000E945B0B0E94D40C0E94CA0C84E590E01A
:100C00000E94F6120E94AF050E94C511FBCF2091F1
:100C10003D01222341F080914601882321F084E2A6
:100C20008093C60002C01092C600922F91709295D8
:100C3000907F8091C6008F7E892B8093C60030E024
:100C4000222309F431E0330F330F330F8091C600B4
:100C5000857F20914601922F9170990F832B892BCC
:100C60008093C60090E0222309F491E08091C600B1
:100C70008E7F892B8093C6000E94F00880912B0103
:100C80008F7E80932B0108950E94E002882309F44F
:100C9000C4C089E992E00E94F6128091FD0086307E
:100CA00009F450C0873080F4833079F1843030F417
:100CB0008823F9F0813009F0B0C021C0843071F18F
:100CC000853009F0AAC033C0893009F45EC08A308B
:100CD00030F48730E1F1883009F09FC047C08B3095
:100CE00009F480C08B3008F476C08C3009F095C0D0
:100CF00087C00E94DD0C8091FC008E7F7EC00E9428
:100D0000D40C8091FC00816078C080E892E00E9461
:100D1000F6128091C4000E941F09089582E390E0BA
:100D20000E94BD0E85E792E00E94F61208958AE5C2
:100D300092E00E94F6128091C4006091C7000E9468
:100D4000180A08958091C4000E94270A08955091BE
:100D5000C80040E08091C500480F511D8091C4003B
:100D60006091C70020E00E94511208955091C80080
:100D700040E08091C500480F511D8091C4006091F2
:100D8000C70020E00E94CE1108958091C4008130F8
:100D900081F0813030F0823089F0833009F03DC03D
:100DA00012C00E94A30C0E94BE0C8091FC008D7F9B
:100DB00024C00E94B00C0E94C50C09C00E94B00C57
:100DC0000E94CA0C04C00E94B00C0E94CF0C8091FB
:100DD000FC00826012C08091C4006091C7000E9434
:100DE000AA0A089590E08091C400811191E0990FC2
:100DF000990F8091FC008B7F892B8093FC000895D4
:100E000090E08091C400811191E09295907F809153
:100E1000FC008F7E892B8093FC00089580912B012C
:100E20008D7F80932B0110922F0110922E018091C3
:100E3000FC00877F8093FC008091AD0087778093D2
:100E4000AD000E94D40E089580917600882309F0A9
:100E50009DC08091AD008093CB008091FC00809379
:100E6000CC008091C2008093CD00809113018093CB
:100E7000CE00809123018093CF0080911501909145
:100E800016018093D0008091590190915A0180936E
:100E9000D100809103018093D20080910101809361
:100EA000D30080915701909158018093D400809194
:100EB0005701909158019093D50080914B019091EA
:100EC0004C018093D60080914B0190914C019093FE
:100ED000D70080911D0190911E018093D8009093BE
:100EE000D90080914301909144018093DA0090935E
:100EF000DB0080916301909164018093DC0090930A
:100F0000DD0080915401909155018093DE00909313
:100F1000DF0080915E0190915F018093E0009093EB
:100F2000E10080915101909152018093E2009093F1
:100F3000E30080911B0190911C018093E400909349
:100F4000E5008091C6008093E8008091CA00982F48
:100F5000990F990F90722091C900322F32953695D2
:100F6000369533708770880F880F832B982B90935A
:100F7000E6002F732093E70080917400882331F0FE
:100F800080917500882311F40E940E070895109235
:100F900074000E94D10E8091FC0082FF05C08091F8
:100FA0002B01826080932B0108951F932091FC00F8
:100FB00022FF49C080912E0190912F01895B9B40B7
:100FC00090F1F89497980E94BE0C1ABC18BC1FBCF4
:100FD0000E94DD0C88E392E00E94F6128CEF91E013
:100FE0000E94F6128BEB91E00E94F61288E891E0E5
:100FF0000E94F61281E691E00E94F61282E20E94BF
:101000001F091AE080E090E80E94CB0E1150D1F742
:1010100084E10E941F091AE080E090E80E94CB0E54
:101020001150D1F7EBCF80913001909131018B3F7E
:10103000910548F028602093FC000E94C707109299
:101040003101109230011F910895809132019091E9
:1010500033018B3F9105C8F080915E0190915F0153
:101060002091600030916100820F931F96958795C3
:101070009093610080936000809178008F5F8093EF
:10108000780010922F0110922E0180917800863006
:10109000B8F08091AD00209160003091610080FD3A
:1010A00005C02053324050F4816004C025543240C2
:1010B00028F08E7F8093AD000E94C70710927800C1
:1010C0008091130190911401892B31F480912301B7
:1010D00090912401009711F081E090E08170880FD9
:1010E0009091C200957E209199002370220F220FCB
:1010F000220F982B922B9093C20008950E94630AAE
:1011000081709091C2009A7F2091C1002470982B29
:10111000922B9093C2008091AD0080688093AD00C7
:101120000E94C70708953091CA00307F482F42952A
:10113000469546954370292F2770220F220F242BA6
:10114000EAECF0E04291422F469546959870392B93
:10115000342B3093CA008F732295220F220F207CEC
:10116000282B20838091AD0088608093AD000E9481
:10117000C70708958091FE008170880F9091AD009F
:101180009D7F982B80915B01882311F0946001C0B2
:101190009B7F9093AD000E94C707089580913D0109
:1011A00081708295880F807E9091AD009F7920910B
:1011B000460121702295220F220F207C982B922B22
:1011C0009093AD000E94C70708958091120184306A
:1011D00010F010921201089584E080931201089596
:1011E00087B38C7787BB88B38C7788BB8091C60028
:1011F00083FF02C0BF9AC79A84FF02C0B99AC19AFE
:1012000085FF02C0B89AC09A84B38F7884BB85B337
:101210008F7885BB94B32091C600822F829580770A
:10122000982B94BB95B3892B85BB809112018823A1
:1012300019F4822F211181E0809312010895809387
:10124000C6000E94F0080895C098B898000096B3B0
:101250008091C60085FF02C0B89AC09A892F81701C
:101260000895AE98A698000093B38091C60082FFBF
:1012700002C0A69AAE9A892F80740895089590931B
:1012800073008093720008951F9380914A01833305
:10129000C8F00E942409182F0E943109982F8091CC
:1012A000FE00811721F480915B01891749F01093AA
:1012B000FE0090935B01E0917200F091730009953C
:1012C00010924A011F910895369B03C020E030E040
:1012D00009C0806487B986ED86B93699FECF349A05
:1012E00024B135B1C9010895806487B986ED86B906
:1012F0000895369956C02091A600233039F1243044
:1013000028F4213099F02230C8F408C0253089F142
:10131000253020F1263009F041C033C084B195B1A9
:1013200090935F0180935E0186E41FC084B195B104
:10133000909364018093630185E417C084B195B1F3
:10134000909355018093540183E40FC084B195B10B
:1013500090931E0180931D0182E407C084B195B172
:10136000909344018093430180E487B986ED86B968
:1013700015C084B195B1909352018093510181E4DD
:10138000F4CF84B195B190931C0180931B0187E445
:1013900087B986ED86B91092A60008952F5F209335
:1013A000A60008951F920F920FB60F9211248F93EB
:1013B0009F93809157019091580101969093580105
:1013C0008093570180914F01909150010196909325
:1013D000500180934F019F918F910F900FBE0F90FE
:1013E0001F9018951F920F920FB60F9211248F9392
:1013F0009F9380914B0190914C01019690934C01E9
:1014000080934B0180912501909126010196909344
:101410002601809325019F918F910F900FBE0F9011
:101420001F9018950895909371008093700008950F
:10143000893C08F088EC8093030110920401693C18
:1014400008F068EC60930101109202010895282FC2
:1014500080939900109295008150823018F481E0B9
:1014600080939500213021F080E090E0233011F44A
:1014700081E090E08093960008959C011092950081
:1014800097FF03C081E0809395001092960077FF4C
:1014900003C081E0809396001216130614F4822F85
:1014A00003C0822F81956195893C08F088EC809378
:1014B000030110920401693C08F068EC609301019B
:1014C00010920201089590E08091C100837009F4A8
:1014D00091E0892F08951092040110920301109257
:1014E00002011092010110920E0110920D01109252
:1014F0004901109248018091C1008C7F8093C10006
:1015000080935D01E0917000F0917100099508955C
:10151000633D08F062ED6093230110922401833D46
:1015200008F082ED809313011092140108958093C6
:1015300097006093980080939500609396008823AD
:1015400011F0AA9A01C0AA98662311F0AB9A0895E7
:10155000AB980895982F03C089B7806889BF8091A0
:1015600008018823C9F7892F90E08F73907026E0D7
:10157000880F991F2A95E1F7262F30E02F733070DE
:10158000822B932B90639093280180932701809165
:10159000070180648093070108951F920F920FB690
:1015A0000F9211242F938F939F9380916B00823021
:1015B000B0F52091A5002223C1F02C3338F480919E
:1015C00041019091420196FF07C008C080914101FE
:1015D0009091420196FF02C0979803C082B3805851
:1015E00082BB21502093A50032C08091080188233E
:1015F000A1F097988091410190914201880F991F25
:10160000909342018093410188E78093A5008091E7
:1016100008018150809308011AC0979818C08091E2
:101620000C01882391F08091070180FD05C088B3EB
:1016300090E4892788BB03C085B3805885BB80911F
:101640000C01815080930C0102C0C69AAF9A9F9101
:101650008F912F910F900FBE0F901F9018951F9292
:101660000F920FB60F9211248F9380916B008330ED
:1016700011F0863069F48091070184FD09C085FF6F
:1016800007C0B29905C080915C018F5F80935C01B7
:1016900086B3809107018D7F809307018F910F9012
:1016A0000FBE0F901F901895089590936D00809332
:1016B0006C000895089590936F0080936E000895D4
:1016C00080911F0190912001029708F43BC19091F5
:1016D000070194FD16C180916B00823009F467C048
:1016E000833030F4882371F0813009F010C111C0CB
:1016F000853009F4ACC0863009F4C1C0833009F0EC
:1017000006C16DC089B78F7789BF9798C69AAF9A7F
:10171000FEC080910801882341F596FF14C0809196
:1017200027019091280190934201809341018EE01E
:1017300080930801809107018F7B8093070189B70F
:10174000806889BF06C089B78F7789BF9798C69A86
:10175000AF9A8091A4008F5F8093A4008150843160
:1017600038F082E080936B0003C089B7806889BF3E
:101770008091070183FFCBC0E0916C00F0916D0078
:101780008091600190916101099580916001909133
:1017900061019093100180930F01109261011092EA
:1017A000600180910701877F80930701B0C089B7EE
:1017B0008F7789BF9798C69AAF9A10920C011092B2
:1017C0005C011092A3001092A200809107018E7F0D
:1017D00080628093070183E08093A40075C08091AC
:1017E0000C01882381F48091A4008F5F8093A40072
:1017F0008150833040F089B7806889BF88E2809348
:101800000C011092A40080913D01882321F0809169
:101810005C01823020F480915C01863038F01092B7
:101820005C0181E080933D0185E04EC08091A20083
:101830009091A30001969093A3008093A20001973A
:101840000E9708F464C010923D0185E04FC089B73F
:101850008F7789BF9798C69AAF9A10920C01109211
:101860005C011092A3001092A20080910701816296
:101870008093070183E08093A40086E025C08091D7
:101880000C01882381F48091A4008F5F8093A400D1
:101890008150833040F089B7806889BF88E28093A7
:1018A0000C011092A40080914601882321F08091C0
:1018B0005C01823020F480915C01863040F010920F
:1018C0005C0181E08093460180936B0020C0809191
:1018D000A2009091A30001969093A3008093A20090
:1018E00001970E97A0F01092460181E080936B0063
:1018F00089B78F7789BF9798C69AAF9A10920C01D3
:1019000006C01092A3001092A2001092A400209191
:101910003D018091A100821731F49091A000809147
:101920004601981759F02093A100809146018093B9
:10193000A000E0916E00F0916F00099510922001D7
:1019400010921F01089510926B0089B78F7789BF9D
:101950009798C69AAF9A1092460110923D01089549
:1019600089B78F7789BF9798C69AAF9A1092460128
:1019700010923D0181E080936B0008958E989698B7
:10198000BB98C398C698AF9808958E9A969ABB98BC
:10199000C39808958E989698BB9AC39A08958E9A84
:1019A000969ABB9AC39A0895C49A80911201843082
:1019B00018F483E0809312010895C4988091120175
:1019C000843060F4882331F420E030E08091C60058
:1019D000882311F021E030E02093120108951F9236
:1019E0000F920FB60F9211242F933F934F935F9353
:1019F0006F937F938F939F93AF93BF938091AF002B
:101A00009091B00001969093B0008093AF008091C8
:101A100053018F5F80935301809156018F5F8093B4
:101A200056018150893008F447C180912B0180FF15
:101A300009C080912C0190912D01019690932D0168
:101A400080932C0180912B0181FF09C080912E0190
:101A500090912F01019690932F0180932E018091F8
:101A60002B0182FF09C080913001909131010196D4
:101A7000909331018093300180912B0183FF09C045
:101A800080913201909133010196909333018093BC
:101A9000320180912B0184FF09C080913401909123
:101AA00035010196909335018093340180912B018B
:101AB00085FF09C08091360190913701019690937E
:101AC00037018093360180912B0186FF09C08091F8
:101AD0003801909139010196909339018093380132
:101AE00080912B0187FF09C080913A0190913B01C1
:101AF000019690933B0180933A01809147018F5F5B
:101B0000809347018150893CE8F0809125019091B4
:101B1000260190935A018093590180914F01909131
:101B20005001909316018093150110922601109296
:101B300025011092500110924F0181E08093110114
:101B40001092470140911201433008F052C04230D8
:101B500081F58091C600882301F580919E009091C7
:101B60009F009C012F5F3F4F30939F0020939E006A
:101B700068EC70E00E944015892BD9F5215A3F404E
:101B800028F0B998C1981092120129C087B3842710
:101B900087BB88B3842788BB2CC084FD02C0B9985A
:101BA000C19810929F0010929E0081E080931201D4
:101BB00020C080919E0090919F002EE2813E92076E
:101BC00098F0413049F4109212018091C60084FDD2
:101BD00006C0B998C19803C082E0809312011092A8
:101BE0009F0010929E0005C0019690939F008093E5
:101BF0009E0080911F0190912001039748F48091ED
:101C00001F019091200101969093200180931F0164
:101C100080913F01873318F48F5F80933F0180915B
:101C20004A01843328F480914A018F5F80934A01EE
:101C3000809145018F5F8093450181508330D0F1C1
:101C400080914001482F50E02091230130912401E0
:101C50004217530759F04217530714F48F5F01C01E
:101C6000815080934001809140018ABD8091620142
:101C7000482F50E02091130130911401421753076F
:101C800059F04217530714F48F5F01C081508093BD
:101C900062018091620188BD80916201882321F4F4
:101CA00080914001882319F082EA8FBD01C01FBCDA
:101CB00010924501109256018091070183FD46C0A4
:101CC00020919A0030919B0040919C004F5F40937F
:101CD0009C00463190F036FD09C035FF07C03093B7
:101CE0006101209360018860809307018091070162
:101CF0008F7E8093070120E030E090919D0086B3B5
:101D0000892782FF1FC0909590939D00473040F433
:101D1000809107018F7E8093070120E030E005C0AD
:101D20002115310511F04F3068F080910701806175
:101D30008093070136FD02C0220F331F92FF2160FE
:101D400010929C0030939B0020939A00BF91AF911A
:101D50009F918F917F916F915F914F913F912F91C3
:101D60000F900FBE0F901F901895982F109253014F
:101D7000809153018917E0F308959C0108C01092E7
:101D80005301809153018A30E0F3215030402115F6
:101D90003105A9F7089502C0000001970097E1F707
:101DA0000895D49ADC9A0895DC98D49808951BBAC3
:101DB00018BA15BA81E082BB1ABA88E587BB8CE8ED
:101DC00084BB82EF81BBF894C598BD9A87B397987E
:101DD0000E94BE0C10BC8CE089B91BB886E880BD9F
:101DE00088E98AB917B886E186B910BE85E085BF53
:101DF00080EE8BBF14BE8AE083BF83E68CBF82EA8D
:101E00008FBD81E18EBD82ED90E097BD86BD1ABC8D
:101E100018BC80E060E00E94970A89E085BD8EE6EC
:101E200083BD82E089BF80910701816080930701B3
:101E300081E080936B00789408951F93182FF89495
:101E400097980E94BE0C10921401109213011092E8
:101E500024011092230110920E0110920D01109294
:101E600049011092480110926201109240011ABC7F
:101E700018BC1FBC0E94DD0C82E594E00E94F612A3
:101E800087E194E00E94F612812F81508230C0F4E5
:101E90008DEE93E00E94F6128BED93E00E94F61215
:101EA000113019F486ED93E002C080ED93E00E94BA
:101EB000F6128FE993E00E94F61280E693E00CC0E0
:101EC000133061F483E493E00E94F61283E193E01F
:101ED0000E94F6128CED92E00E94F61286EB92E0E0
:101EE0000E94F61216E31093C6000E94F0082AE042
:101EF00008C0000001973FEF8F3F9307D1F72150B3
:101F000019F080E090E8F6CF1092C6000E94F00829
:101F10002AE005C000000197E9F7215021F380E095
:101F200090E0F9CF80913F01823308F47CC0109299
:101F30003F0180913C01882309F041C080916301F9
:101F4000909164018350934038F4809154019091B2
:101F5000550183509340F0F080913E018F5F809354
:101F60003E018AE080933C0110921401109213010B
:101F7000109224011092230110920E0110920D0173
:101F800010924901109248018091C10084608093B1
:101F9000C10008958091C1008B7F8093C100809122
:101FA0000901853628F010923E011092090107C000
:101FB00080913E01833018F083E00E941D0F8091D4
:101FC0006301909164018639910598F4809115011F
:101FD00090911601892B69F480910301909104017D
:101FE000892B39F080916201873918F081E00E94D5
:101FF0001D0F80915401909155018639910598F4F7
:102000008091590190915A01892B69F480910101C5
:1020100090910201892B39F080914001873918F0A5
:1020200082E00E941D0F80911101882309F49FC155
:1020300080913C01882309F095C180913E0188235D
:1020400031F0809109018F5F8093090102C01092E5
:1020500009014091C10041FF38C0209157013091E2
:1020600058018091FF00909100012817390780F0F6
:10207000109204011092030110920E0110920D01B2
:1020800010921401109213014D7F4093C1001DC0A6
:1020900020915701309158018091170190911801BA
:1020A0002817390790F080910301909104019695CB
:1020B00087959093040180930301469730F486E15D
:1020C00090E090930401809303014091C10040FF90
:1020D00038C020914B0130914C01809121019091A9
:1020E00022012817390780F0109202011092010195
:1020F000109249011092480110922401109223017C
:102100004E7F4093C1001DC020914B0130914C0186
:1021100080914D0190914E012817390790F08091E0
:102120000101909102019695879590930201809309
:102130000101469730F486E190E09093020180938C
:1021400001014091950080919700481739F49091D2
:10215000960080919800981709F455C020910301CA
:10216000309104012115310531F4809101019091E4
:102170000201892B21F13093060120930501809102
:1021800001019091020190931A018093190110921C
:1021900004011092030110920201109201011092A9
:1021A0002401109223011092140110921301109235
:1021B0000E0110920D0110924901109248018FB545
:1021C000882309F5842F609196000E94970A8091D8
:1021D00005019091060190930401809303012091E1
:1021E000190130911A013093020120930101969553
:1021F000879590930E0180930D0136952795309326
:1022000049012093480140910301509104018091BC
:102210001501909116019A01281B390BC9012091D3
:102220000D0130910E01820F931F90930E01809348
:102230000D01855A914034F084EA91E090930E01AB
:1022400080930D0180910D0190910E018C559E4F50
:1022500034F48CE59EEF90930E0180930D018091F4
:10226000150190911601892B31F4452B21F4109220
:102270000E0110920D0180910D0190910E0162E00E
:1022800070E00E9454157093140160931301633D34
:10229000710534F082ED90E0909314018093130166
:1022A000809113019091140197FF04C010921401C2
:1022B0001092130140910101509102018091590146
:1022C00090915A019A01281B390BC90120914801AC
:1022D00030914901820F931F9093490180934801E7
:1022E000855A914034F084EA91E0909349018093BB
:1022F000480180914801909149018C559E4F34F4DA
:102300008CE59EEF9093490180934801809159019B
:1023100090915A01892B31F4452B21F410924901F7
:1023200010924801809148019091490162E070E06B
:102330000E9454157093240160932301633D71053D
:1023400034F082ED90E090932401809323018091FA
:1023500023019091240197FF08C01092240110924C
:10236000230103C0815080933C0110921101909190
:10237000C10080915D01891739F090935D01E09172
:102380007000F0917100099508950E9479090E94EA
:10239000600B0E9444090E94920F0895FF920F93D0
:1023A0001F93CF93DF93182F062FF22E8091C10039
:1023B00083608093C10060E070E0CB01BA0120EB44
:1023C00032E040E050E00E94211524E630E040E099
:1023D00050E00E946715E901C9018456904090932E
:1023E0004E0180934D019093180180931701309313
:1023F000220120932101309300012093FF00283215
:102400003105B0F484E190E09093220180932101A2
:10241000909300018093FF008AE090E090934E013A
:1024200080934D019093180180931701C8E2D0E08A
:10243000193C18F018EC88EC01C0812F809303013F
:10244000109204011093010110920201802F0E944A
:10245000270A109258011092570110924C011092C5
:102460004B01D0932A01C0932901D0930B01C09353
:102470000A018091C10080935D01E0917000F091AC
:1024800071000995FF2019F406C00E94C5118091C2
:10249000C1008370D1F7DF91CF911F910F91FF9011
:1024A00008951F93CF93DF93382FEA01122F809165
:1024B000C10083608093C10010924E0110924D01C3
:1024C0001092180110921701373180F086EF9FEFBC
:1024D000831B9109880F991F840F951F90934E01BC
:1024E00080934D019093180180931701CE010297BC
:1024F0009093220180932101909300018093FF002B
:10250000C832D105B8F484E190E090932201809321
:102510002101909300018093FF008AE090E0909366
:102520004E0180934D019093180180931701C8E2EA
:10253000D0E004C021E0C039D20798F4393288F0E5
:10254000CE0196958795969587959E01281B390B08
:1025500030934E0120934D013093180120931701C1
:1025600038E2109258011092570110924C011092CB
:102570004B01393C18F038EC88EC01C0832F809374
:102580000301109204013093010110920201862F81
:102590000E94270AD0932A01C0932901D0930B01EE
:1025A000C0930A018091C10080935D01E0917000A9
:1025B000F09171000995112319F406C00E94C5110C
:1025C0008091C1008370D1F7DF91CF911F91089561
:1025D0005D9BFECF8CB90895FC0104C05D9BFECFCE
:1025E00031968CB980818823C9F7089503C05D9B1B
:1025F000FECF2CB9FC01019624912223C1F7089546
:10260000FC01E40FF11D05C05D9BFECF31968CB936
:1026100061508081882311F06623B1F708951F92DD
:102620000F920FB60F9211242F938F939F93EF93D6
:10263000FF932091AA008091A900922F981B9032BD
:10264000A8F48091A800E82FF0E09CB1EA59FE4F71
:1026500090838F5F8093A8002F5F2093AA00813220
:1026600010F01092A8001092650106C08CB1809302
:10267000AC0081E080936501FF91EF919F918F9174
:102680002F910F900FBE0F901F901895109265011B
:102690009091A9008091AA00891711F4E0E013C07D
:1026A0009F5F9093A9008091A700813210F0109253
:1026B000A7008091A700E82FF0E0EA59FE4FE081E3
:1026C0008F5F8093A7008E2F089510926501DC0123
:1026D00020E014C09F5F9093A9008091A700E82F8D
:1026E000F0E0EA59FE4F90819C938F5F8093A700A2
:1026F000813210F01092A7002F5F11969091A900DF
:102700008091AA00891711F0261720F3822F0895CF
:102710008091AA009091A900891B089557988CB1C7
:102720008093AB001092A7001092A8001092A9000D
:102730001092AA0010926501579A08950F931F9363
:10274000DF93CF93CDB7DEB761970FB6F894DEBFB6
:102750000FBECDBF462F8E010F5F1F4FB80150E057
:102760000E948915C8010E94EC1261960FB6F89478
:10277000DEBF0FBECDBFCF91DF911F910F910895A6
:10278000FF920F931F93DF93CF93CDB7DEB761977F
:102790000FB6F894DEBF0FBECDBF262FF42E8E01EC
:1027A0000F5F1F4FB801422F50E00E948915F801BA
:1027B00001900020E9F73197E01BF10B4F2D4E1BE4
:1027C000141664F480E341505D9BFECF8CB9442322
:1027D000D1F7CE0101960E94EC1205C04195C801C7
:1027E0006F2D0E94001361960FB6F894DEBF0FBEE6
:1027F000CDBFCF91DF911F910F91FF9008950CD025
:10280000E6C0DED040F0D5D030F021F45F3F19F0C3
:10281000C7C0511110C1CAC0EBD098F39923C9F3B6
:102820005523B1F3951B550BBB27AA2762177307D6
:10283000840738F09F5F5F4F220F331F441FAA1F8A
:10284000A9F333D00E2E3AF0E0E830D0915050404A
:10285000E695001CCAF729D0FE2F27D0660F771FF8
:10286000881FBB1F261737074807AB07B0E809F0DA
:10287000BB0B802DBF01FF2793585F4F2AF09E3F6F
:10288000510568F08DC0D7C05F3FECF3983EDCF394
:10289000869577956795B795F7959F5FC9F7880FE8
:1028A000911D9695879597F90895E1E0660F771F3A
:1028B000881FBB1F621773078407BA0720F0621BCB
:1028C000730B840BBA0BEE1F88F7E095089598D030
:1028D00088F09F5790F0B92F9927B751A0F0D1F009
:1028E000660F771F881F991F1AF0BA95C9F712C093
:1028F000B13081F09FD0B1E008959CC0672F782F50
:102900008827B85F39F0B93FCCF3869577956795FE
:10291000B395D9F73EF490958095709561957F4F6A
:102920008F4F9F4F0895E89409C097FB3EF4909510
:102930008095709561957F4F8F4F9F4F9923A9F098
:10294000F92F96E9BB279395F69587957795679527
:10295000B795F111F8CFFAF4BB0F11F460FF1BC06B
:102960006F5F7F4F8F4F9F4F16C0882311F096E9FE
:1029700011C0772321F09EE8872F762F05C06623AC
:1029800071F096E8862F70E060E02AF09A95660F65
:10299000771F881FDAF7880F9695879597F908951E
:1029A00097F99F6780E870E060E008959FEF80EC02
:1029B000089500240A9416161706180609060895A5
:1029C00000240A9412161306140605060895092E0B
:1029D0000394000C11F4882352F0BB0F40F4BF2B7A
:1029E00011F460FF04C06F5F7F4F8F4F9F4F0895BA
:1029F00057FD9058440F551F59F05F3F71F04795B0
:102A0000880F97FB991F61F09F3F79F08795089594
:102A1000121613061406551FF2CF4695F1DF08C0B3
:102A2000161617061806991FF1CF869571056105D0
:102A300008940895E894BB2766277727CB0197F978
:102A40000895629FD001739FF001829FE00DF11DF8
:102A5000649FE00DF11D929FF00D839FF00D749F18
:102A6000F00D659FF00D9927729FB00DE11DF91FC4
:102A7000639FB00DE11DF91FBD01CF011124089521
:102A8000AA1BBB1B51E107C0AA1FBB1FA617B70794
:102A900010F0A61BB70B881F991F5A95A9F78095B0
:102AA0009095BC01CD01089597FB092E07260AD009
:102AB00077FD04D0E5DF06D000201AF4709561950B
:102AC0007F4F0895F6F7909581959F4F0895A1E265
:102AD0001A2EAA1BBB1BFD010DC0AA1FBB1FEE1F98
:102AE000FF1FA217B307E407F50720F0A21BB30BE3
:102AF000E40BF50B661F771F881F991F1A9469F75F
:102B000060957095809590959B01AC01BD01CF01BA
:102B10000895FB019F01E8944230C4F04532B4F4BB
:102B20004A3029F497FB1EF4909581959F4F642FAE
:102B300077270E944015805D8A330CF0895D819370
:102B4000CB010097A1F716F45DE251931082C90101
:102B50000C94AA15DC01FC01672F71917723E1F732
:102B6000329704C07C916D9370836291AE17BF075A
:082B7000C8F30895F894FFCFAB
:102B7800D00201323232000000010201540B5A0B1C
:042B8800120A3E09E6
:00000001FF
